:020000040800F2
:1000000000000320C57B01081D0D0008230D00081A
:10001000290D00082F0D0008350D00080000000014
:10002000000000000000000000000000815A0008ED
:100030003B0D000800000000C15C0008295D0008BD
:10004000157C0108157C0108157C0108157C010848
:10005000157C0108157C0108157C0108157C010838
:10006000157C0108157C0108157C0108157C010828
:10007000157C0108157C0108157C0108157C010818
:10008000157C0108157C0108157C0108157C010808
:10009000157C0108157C0108157C0108157C0108F8
:1000A000157C0108490D0008157C0108157C010824
:1000B000157C0108157C0108157C0108157C0108D8
:1000C000157C0108157C0108157C0108157C0108C8
:1000D000157C0108157C0108157C0108157C0108B8
:1000E000157C0108157C0108157C0108157C0108A8
:1000F000157C0108157C0108157C0108157C010898
:10010000157C0108157C0108157C0108157C010887
:10011000157C0108157C0108157C0108157C010877
:10012000157C0108157C0108157C0108157C010867
:10013000157C01085D0D0008157C0108157C01087F
:10014000157C0108157C0108157C0108157C010847
:10015000157C0108157C0108157C0108157C010837
:10016000157C0108157C0108157C0108157C010827
:10017000157C0108157C0108157C010800000000B1
:10018000157C0108157C0108157C0108157C010807
:10019000157C0108157C0108157C0108157C0108F7
:0C01A000157C0108157C0108157C010885
:1001B00010B5054C237833B9044B13B10448AFF3A1
:1001C00000800123237010BD840000200000000087
:1001D000E08B010808B5034B1BB103490348AFF39B
:1001E000008008BD0000000088000020E08B0108AE
:1001F000034613F8012B002AFBD1181A0138704767
:1002000001F0FF01102A2BDB10F0070F08D010F8C7
:10021000013B013A8B422DD010F0070F42B3F6D1CB
:10022000F0B441EA012141EA014122F007047FF0E4
:1002300000070023F0E80256083C85EA010586EA3B
:10024000010685FA47F5A3FA87F586FA47F6A5FA77
:1002500087F68EB9EED1F0BC01F0FF0102F0070283
:1002600032B110F8013B013A83EA010313B1F8D12E
:100270000020704701387047002D06BF354603380F
:10028000073815F0010F07D1013015F4807F02BF48
:10029000013015F4C03F0130F0BC0138704700BF99
:1002A00053B94AB9002908BF00281CBF4FF0FF31DD
:1002B0004FF0FF3000F07AB9ADF1080C6DE904CED3
:1002C00000F006F8DDF804E0DDE9022304B0704731
:1002D0002DE9F0478C460D460446089E002B51D16F
:1002E0008A4217466DD9B2FA82FEBEF1000F0BD0DA
:1002F000CEF1200C01FA0EF520FA0CFC02FA0EF7F2
:100300004CEA050C00FA0EF44FEA174A250CBCFB28
:10031000FAF81FFA87F90AFB18CC45EA0C4508FBE6
:1003200009F3AB420AD9ED1908F1FF3280F02381BD
:10033000AB4240F22081A8F102083D44ED1AA4B27C
:10034000B5FBFAF00AFB105544EA054400FB09F935
:10035000A14509D9E41900F1FF3380F00A81A145D4
:1003600040F2078102383C44A4EB090440EA08400B
:100370000021002E61D024FA0EF400233460736053
:10038000BDE8F0878B4207D9002E54D0002186E8C3
:1003900021000846BDE8F087B3FA83F1002940F058
:1003A0008E80AB4202D3824200F2FA80841A65EB5F
:1003B00003050120AC46002E3FD086E81010BDE8B2
:1003C000F08712B90127B7FBF2F7B7FA87FEBEF143
:1003D000000F34D1EB1B3A0C1FFA87FC0121B3FB51
:1003E000F2F8250C02FB183345EA03450CFB08F331
:1003F000AB4207D9ED1908F1FF3002D2AB4200F24F
:10040000D1808046ED1AA3B2B5FBF2F002FB105585
:1004100043EA05440CFB00FCA44507D9E41900F1AC
:10042000FF3302D2A44500F2B8801846A4EB0C04B6
:1004300040EA08409DE731463046BDE8F087CEF1FE
:10044000200405FA0EF307FA0EF720FA04F83A0C26
:1004500025FA04F448EA0308B4FBF2F14FEA184520
:1004600002FB11441FFA87FC45EA044501FB0CF32B
:10047000AB4200FA0EF409D9ED1901F1FF3080F01A
:100480008A80AB4240F2878002393D44EB1A1FFA62
:1004900088F5B3FBF2F002FB103345EA034500FB9D
:1004A0000CF3AB4207D9ED1900F1FF386FD2AB4224
:1004B0006DD902383D44EB1A40EA01418FE7C1F1A2
:1004C000200722FA07F88B4005FA01F448EA0303F3
:1004D00020FA07FE4FEA134CFD404EEA040EB5FB2E
:1004E000FCF94FEA1E440CFB19551FFA83F844EA45
:1004F000054509FB08F4AC4202FA01F200FA01FAE0
:1005000008D9ED1809F1FF3043D2AC4241D9A9F125
:1005100002091D442D1B1FFA8EFEB5FBFCF00CFBDF
:1005200010554EEA054400FB08F8A04507D9E41829
:1005300000F1FF3529D2A04527D902381C4440EAF2
:100540000940A4EB0804A0FB02894C45C6464D4671
:1005500015D312D056B1BAEB0E0364EB050404FABE
:1005600007F7CB401F43CC40376074600021BDE8E3
:10057000F0871846F8E69046E0E6C245EAD2B8EBC6
:10058000020E69EB03050138E4E72846D7E7404649
:1005900091E78146BEE7014678E702383C4445E7EB
:1005A000084608E7A8F102083D442BE7704700BF62
:1005B00080B483B000AF7860396000BF0C37BD46AF
:1005C0005DF8047B704780B400AF00BFBD465DF8A6
:1005D000047B704780B485B000AFF860B9607A6082
:1005E000FB68074A1A60BB68064A1A607B6880226B
:1005F0001A6000BF1437BD465DF8047B704700BF2A
:10060000A0000020F400002080B485B000AFF860A6
:10061000B9607A60FB68074A1A60BB68064A1A60CC
:100620007B684FF480721A6000BF1437BD465DF8D6
:10063000047B7047F40200204803002080B483B09C
:1006400000AF786000BF084B1B6803F04003002B2D
:10065000F9D0054B7A68D2B25A607B6818460C37DD
:10066000BD465DF8047B704700100140B0B588B00E
:1006700000AF00F01FFD00F029F800F029F900F0AC
:1006800095F800F0A7F800F0E5F800F0F7F800F0B2
:1006900083FC0B4817F07AFB0A4B3C1D1D460FCD1F
:1006A0000FC495E8070084E807003B1D00211846A9
:1006B00004F004FE0246044B1A6004F0E8FDFEE775
:1006C000F88B0108108C0108E49F012080B594B0DC
:1006D00000AF07F1200330220021184617F0DAFAA4
:1006E00007F10C0300221A605A609A60DA601A61FE
:1006F0000023BB602B4A2B4B1B6C43F080531364CD
:10070000284B1B6C03F08053BB60BB6800237B60ED
:10071000254A254B1B6843F440431360224B1B685A
:1007200003F440437B607B6802233B620123FB624E
:1007300010233B630223BB630023FB6308233B645A
:10074000B4237B640223BB640823FB6407F120030A
:10075000184603F079F80346002B01D000F080F929
:1007600003F022F80346002B01D000F079F90F23A3
:10077000FB6002233B6100237B614FF4A053BB610C
:100780004FF48053FB6107F10C030521184603F079
:10079000D3FA0346002B01D000F062F900BF5037B6
:1007A000BD4680BD003802400070004080B500AFFB
:1007B000064B074A1A60054800F0C0FD0346002BAF
:1007C00001D000F04DF900BF80BD00BFEC9F0120BB
:1007D0000030024080B500AF1B4B1C4A1A601A4B18
:1007E0001B4A5A60184B00229A60174B0022DA60AD
:1007F000154B4FF480421A61134B00225A61124B81
:1008000000229A61104B0022DA610F4B00221A621B
:100810000D4801F09DFF0346002B01D000F020F9A8
:100820000021094802F045FF0346002B01D000F0EB
:1008300017F90021044802F078FF0346002B01D08D
:1008400000F00EF900BF80BDF49F01200058004069
:10085000A086010080B500AF064B074A1A60054824
:1008600003F06CFC0346002B01D000F0F9F800BF48
:1008700080BD00BF8CA001200008065080B500AFED
:10088000114B124A1A60104B4FF4E1325A600E4B72
:1008900000229A600C4B0022DA600B4B00221A6196
:1008A000094B0C225A61084B00229A61064B002228
:1008B000DA61054803F01AFF0346002B01D000F06F
:1008C000CFF800BF80BD00BF48A00120001001404C
:1008D00080B58AB000AF07F1140300221A605A6095
:1008E0009A60DA601A6100233B61394A384B1B6B0E
:1008F00043F004031363364B1B6B03F004033B61AB
:100900003B690023FB60324A314B1B6B43F0800391
:1009100013632F4B1B6B03F08003FB60FB6800230A
:10092000BB602B4A2A4B1B6B43F001031363284B1C
:100930001B6B03F00103BB60BB6800237B60244A90
:10094000234B1B6B43F002031363214B1B6B03F020
:1009500002037B607B6800233B601D4A1C4B1B6BC2
:1009600043F0400313631A4B1B6B03F040033B60DF
:100970003B6801222021174801F0B6FE0122012127
:10098000154801F0B1FE00220221134801F0ACFE2F
:1009900020237B610123BB610123FB6103233B62B5
:1009A00007F1140319460B4801F0F4FC03237B61A3
:1009B0000123BB610123FB6103233B6207F11403A5
:1009C0001946054801F0E6FC00BF2837BD4680BD4A
:1009D000003802400000024000040240B0B58AB076
:1009E00000AF786004F080F840F6B83004F0B2FC54
:1009F0000F4B07F10C041D460FCD0FC495E80700FF
:100A000084E8070007F10C030021184604F056FCA7
:100A10000246084B1A600121074801F07EFE0221C0
:100A2000054801F07AFE4FF47A7004F093FCF2E787
:100A3000388C0108E89F01200004024080B582B094
:100A400000AF78607B681B68044A934201D100F0D4
:100A500053FB00BF0837BD4680BD00BF000001400A
:100A600080B400AF72B6FEE780B582B000AF00235D
:100A70007B60124A114B5B6C43F4804353640F4B11
:100A80005B6C03F480437B607B6800233B600B4A14
:100A90000A4B1B6C43F080531364084B1B6C03F030
:100AA00080533B603B6800220F216FF0010000F093
:100AB0001BFC00BF0837BD4680BD00BF00380240A8
:100AC00080B485B000AF78607B681B680B4A9342A6
:100AD0000DD10023FB600A4A094B1B6B43F4805382
:100AE0001363074B1B6B03F48053FB60FB6800BF71
:100AF0001437BD465DF8047B704700BF00300240EC
:100B00000038024080B58AB000AF786007F1140366
:100B100000221A605A609A60DA601A617B681B686A
:100B2000194A93422BD100233B61184A174B1B6B88
:100B300043F080031363154B1B6B03F080033B6191
:100B40003B6930237B611223BB610123FB610323DB
:100B50003B6204237B6207F1140319460C4801F041
:100B600019FC0023FB60094A084B1B6C43F480030B
:100B70001364064B1B6C03F48003FB60FB6800BF2F
:100B80002837BD4680BD00BF0058004000380240F5
:100B9000001C024080B485B000AF78607B681B68A1
:100BA0000B4A93420DD10023FB600A4A094B5B6B51
:100BB00043F040035363074B5B6B03F04003FB6060
:100BC000FB6800BF1437BD465DF8047B704700BF6B
:100BD000000806500038024080B58AB000AF786047
:100BE00007F1140300221A605A609A60DA601A61F1
:100BF0007B681B68194A93422CD100233B61184A39
:100C0000174B5B6C43F010035364154B5B6C03F0A4
:100C100010033B613B690023FB60114A104B1B6BC7
:100C200043F0010313630E4B1B6B03F00103FB60E6
:100C3000FB684FF4C0637B610223BB610023FB614F
:100C400003233B6207237B6207F11403194605481F
:100C500001F0A0FB00BF2837BD4680BD0010014059
:100C6000003802400000024080B58CB000AF7860D0
:100C70000023FB620023BB6200227968192000F088
:100C800033FB192000F04CFB0023FB601F4A1F4B75
:100C90005B6C43F0010353641C4B5B6C03F001037A
:100CA000FB60FB6807F1100207F1140311461846B8
:100CB00003F012FA03F0FCF903465B00FB62FB6AE7
:100CC000134AA2FB03239B0C013BBB62114B124A4C
:100CD0001A60104B40F2E732DA600E4ABB6A53608A
:100CE0000C4B00221A610B4B00229A60094803F05A
:100CF0004FFA0346002B04D1064803F0A3FA03463B
:100D000000E0012318463037BD4680BD0038024060
:100D100083DE1B439CA001200000014080B400AF93
:100D2000FEE780B400AFFEE780B400AFFEE780B41A
:100D300000AFFEE780B400AFFEE780B400AF00BFB5
:100D4000BD465DF8047B704780B500AF024803F0F4
:100D5000E9FA00BF80BD00BF9CA0012080B500AFB4
:100D6000024800F0EDFE00BF80BD00BF0CBA0120BC
:100D700090B587B000AFF860B9607A6000237B61FE
:100D80000AE0BC68631CBB60AFF300800346DBB2C3
:100D900023707B6901337B617A697B689A42F0DB5F
:100DA0007B6818461C37BD4690BD80B586B000AF45
:100DB000F860B9607A6000237B6109E0BB685A1C67
:100DC000BA601B781846FFF739FC7B6901337B61F9
:100DD0007A697B689A42F1DB7B6818461837BD4612
:100DE00080BD000080B485B000AF7860114B1B68F7
:100DF000002B02D10F4B104A1A600E4B1B68FB6090
:100E00000C4B1A687B6813446A46934205D90B4B16
:100E10000C221A604FF0FF3306E0064B1A687B681D
:100E20001344044A1360FB6818461437BD465DF846
:100E3000047B704748070020F00B0220E80B0220DB
:100E400080B483B000AF78604FF0FF3318460C37A2
:100E5000BD465DF8047B704780B483B000AF786016
:100E600039603B684FF400525A60002318460C3733
:100E7000BD465DF8047B704780B483B000AF7860F6
:100E8000012318460C37BD465DF8047B704780B4DB
:100E900085B000AFF860B9607A6000231846143757
:100EA000BD465DF8047B704780B400AF064A064B30
:100EB000D3F8883043F47003C2F8883000BFBD46D1
:100EC0005DF8047B704700BF00ED00E080B58AB09C
:100ED00002AF786000220021102007F025FDF861A4
:100EE000FB69002B51D007220021F86907F0BCFDF7
:100EF0000346FB7697F91B30002B3FD1FF21F869A1
:100F000007F0EAFD07F114031946F86907F010FE2F
:100F10000346BB7697F91A30002BF3D11BE03B69EF
:100F200007F10A0207F10C01184609F0C9FC7869BB
:100F3000F9687B891A4600230093012307F0BEFF5E
:100F40003B69184609F006FD0346002BE7DA3B69CA
:100F5000184609F095FC7B6907F110021146184606
:100F600007F034FF0346002BD9D07B69184608F000
:100F70004DF87B69184607F051FDC3E77B691846B9
:100F800007F04CFD034816F001FF00BF2037BD46B7
:100F900080BD00BF548C010880B586B004AF00232B
:100FA000FB71F023BB71FF23029301230193BB1D4F
:100FB00000930123FF2240210D4801F001FDFF2392
:100FC000029301230193FB1D00930123FF22412182
:100FD000074801F0EFFD0346002B04D1FB791946C9
:100FE000044816F05FFEFB7918460837BD4680BD01
:100FF000F49F0120708C010880B586B004AF0023F7
:10100000FB71FF23029301230193FB1D0093012336
:10101000FF224121034801F0CDFDFB791846083736
:10102000BD4680BDF49F012080B586B004AF034665
:10103000FB71FF23029301230193FB1D0093012306
:10104000FF224021034801F0BBFC00BF0837BD462A
:1010500080BD00BFF49F012080B584B000AF03467F
:101060000A46FB711346BB71FFF7C6FF0346FB73CD
:10107000BB79002B0CD1FB79012202FA03F35BB29E
:10108000DB435AB297F90F3013405BB2FB7309E0B0
:10109000FB79012202FA03F35AB297F90F30134396
:1010A0005BB2FB73FB7B1846FFF7BEFF00BF103738
:1010B000BD4680BD80B500AF0E4A0E4B1B6843F4A1
:1010C000007313600B4A0B4B1B6843F4806313607F
:1010D000084A084B1B6843F480731360032000F038
:1010E000F8F80020FFF7C0FDFFF7BEFC002318460C
:1010F00080BD00BF003C024080B400AF064B1B78AF
:101100001A46064B1B681344044A136000BFBD46D1
:101110005DF8047B704700BF08000020E4A00120B8
:1011200080B400AF034B1B681846BD465DF8047BD6
:10113000704700BFE4A0012080B584B000AF7860A4
:10114000FFF7EEFFB8607B68FB60FB68B3F1FF3F21
:1011500005D0094B1B781A46FB681344FB6000BF9F
:10116000FFF7DEFF0246BB68D21AFB689A42F7D34C
:1011700000BF1037BD4680BD0800002080B485B098
:1011800000AF78607B6803F00703FB600C4BDB6803
:10119000BB60BA684FF6FF031340BB60FB681A02DE
:1011A000BB68134343F0BF6343F40033BB60044A9E
:1011B000BB68D36000BF1437BD465DF8047B704741
:1011C00000ED00E080B400AF044BDB681B0A03F0C5
:1011D00007031846BD465DF8047B704700ED00E04C
:1011E00080B483B000AF0346FB7197F90730002B42
:1011F0000BDB094997F907305B09FA7902F01F0206
:10120000012000FA02F241F8232000BF0C37BD464E
:101210005DF8047B704700BF00E100E080B483B05C
:1012200000AF03463960FB7197F90730002B0ADBEA
:101230000D4997F907303A68D2B21201D2B20B4485
:1012400083F800230AE00949FB7903F00F03043B0C
:101250003A68D2B21201D2B20B441A7600BF0C37F0
:10126000BD465DF8047B704700E100E000ED00E062
:1012700080B489B000AFF860B9607A60FB6803F0B1
:101280000703FB61FB69C3F10703042B28BF042399
:10129000BB61FB690433062B02D9FB69033B00E009
:1012A00000237B610122BB6902FA03F35A1EBB686B
:1012B0001A407B699A4001217B6901FA03F3591EA8
:1012C0007B680B40134318462437BD465DF8047B0A
:1012D000704780B582B000AF78607868FFF74EFF46
:1012E00000BF0837BD4680BD80B586B000AF03465D
:1012F000B9607A60FB7300237B61FFF763FF78615D
:101300007A68B9687869FFF7B3FF024697F90F303A
:1013100011461846FFF782FF00BF1837BD4680BD53
:1013200080B582B000AF0346FB7197F907301846CD
:10133000FFF756FF00BF0837BD4680BD80B582B0BD
:1013400000AF78607B68002B01D101230EE07B6841
:101350005B79DBB2002B05D17B6800221A717868BB
:10136000FFF7AEFB7B6801225A710023184608374D
:10137000BD4680BD80B588B000AF78600023FB61BA
:101380000023FB60AA4BBB6100237B6100233B6110
:101390007B68002B01D1012385E17B6893F8443001
:1013A000DBB2002B06D17B68002283F845207868E9
:1013B00003F0DAFB0023BB609E4A9E4B5B6C43F458
:1013C000804353649B4B5B6C03F48043BB60BB68FE
:1013D000994A994B5B6823F4000353609649964BF6
:1013E0005A687B681B6A13434B607B681B687A688A
:1013F000126802F58052126842F0010203F5805330
:101400001A60FFF78DFE786111E0FFF789FE024652
:101410007B69D31AB3F5FA7F09D97B68032283F875
:1014200044207B68002283F8452003233BE17B684E
:101430001B6803F580531B6803F00103002BE4D104
:101440007B681B681B69FB61FB6923F01C03FB6164
:1014500002F00EFEB861BB69784A934208D9BB69B5
:10146000774A934204D8FB6943F00803FB6127E005
:10147000BB69734A934208D9BB69724A934204D844
:10148000FB6943F00C03FB611AE0BB696D4A9342B0
:1014900003D9BB696C4A934211D9BB696A4A93422A
:1014A00008D9BB69694A934204D8FB6943F0040335
:1014B000FB6105E0FB6943F01003FB6100E000BF46
:1014C0007B681B68FA691A614FF400420021786852
:1014D00000F019FC0346002B0BD001233B61396956
:1014E000786800F0A5FC7B68012283F84420012382
:1014F000D9E0FF20FFF720FE7B685B68002B00F03F
:10150000A780FFF70DFE786107F10C031A46012151
:10151000786800F090FBFFF703FE02467B69D31A60
:1015200041F2883293420FD901233B6139697868CF
:1015300000F07EFC7B68012283F844207B68002257
:1015400083F845200323AEE0FB6803F00403002B7F
:10155000DAD04FF480520021786800F0D4FB0346C3
:10156000002B0BD001233B613969786800F060FCE7
:101570007B68012283F84420012394E0FFF7D0FD2B
:10158000786107F10C031A460121786800F053FBDB
:10159000FFF7C6FD02467B69D31A41F288329342B7
:1015A0000FD901233B613969786800F041FC7B6801
:1015B000012283F844207B68002283F8452003231E
:1015C00071E0FB6803F02003002BDAD007F10C0375
:1015D0001A461021786800F02EFB0346002B0BD032
:1015E00001233B613969786800F022FC7B680122A5
:1015F00083F84420012356E0FB6803F00403002B2A
:1016000004D07B684FF40062DA6002E07B6800225D
:10161000DA60FB6803F00203002B03D07B68002232
:101620009A6037E07B684FF480429A6032E000BFF6
:10163000008793030038024000380140FF2C31013D
:10164000BF0E1602FF869303FFE0F5057FD1F00879
:101650007B68DB68DB089AB27B689B685B089BB29F
:1016600013439BB21A460021786800F04CFB0346F6
:10167000002B0BD001233B613969786800F0D8FB5F
:101680007B68012283F8442001230CE040F6FF70C0
:10169000FFF752FD3969786800F0CAFB7B680122C8
:1016A00083F84420002318462037BD4680BD00BF84
:1016B00080B487B000AFF860B9607A603B60002307
:1016C0007B61FB6893F84530012B01D1022352E086
:1016D000FB68012283F84520FB68022283F844203E
:1016E000FB68BA68DA6200237B6130E07B695B01EA
:1016F000BA6813443B613B694FF480121A607B69FE
:1017000040F2F45202FB03F37A6813441A463B6931
:101710009A60FB68DB69002B05D13B691B6843F4C9
:1017200040023B691A603B685A1E7B699A4208D99D
:101730007B6901335B01BA6813441A463B69DA607E
:1017400002E0BA683B69DA607B6901337B617A69E0
:101750003B689A42CAD3FB681B68BA6803F580539A
:1017600010331A60FB68012283F84420FB680022D2
:1017700083F84520002318461C37BD465DF8047BDE
:10178000704780B487B000AFF860B9607A603B60A2
:1017900000237B61FB6893F84530012B01D10223C4
:1017A00056E0FB68012283F84520FB68022283F89B
:1017B0004420FB68BA689A6200237B6134E07B694D
:1017C0005B01BA6813443B613B694FF000421A6009
:1017D0003B6944F2F4525A607B6940F2F45202FBD6
:1017E00003F37A6813441A463B699A60FB689B6965
:1017F000012B05D13B695B6823F000423B695A60CD
:101800003B685A1E7B699A4208D97B6901335B01A8
:10181000BA6813441A463B69DA6002E0BA683B6969
:10182000DA607B6901337B617A693B689A42C6D38F
:10183000FB681B68BA6803F580530C331A60FB68B9
:10184000012283F84420FB68002283F8452000230E
:1018500018461C37BD465DF8047B704780B487B0DE
:1018600000AF7860396000237B610023FB600023B8
:101870003B617B6893F84530012B01D10223CDE019
:101880007B68012283F845207B68022283F844208C
:101890003B68002B09D17B68012283F844207B68D8
:1018A000002283F845200123B8E07B68DB6A1B68CF
:1018B000002B09DA7B68122283F844207B6800221F
:1018C00083F845200123A9E03B6840F2F45293429B
:1018D00015D93B68544AA2FB03239B0A7B613A68F3
:1018E000514BA3FB02139B0A40F2F45101FB03F39B
:1018F000D31A002B05D07B6901337B6101E0012302
:101900007B617B69012B1CD17B68DB6A7A68D26AB8
:10191000126842F040521A607B68DB6A3A68C2F390
:101920000C025A607B68DB6A7A68D26A126842F0FD
:1019300000421A607B68DB6ADB681A467B68DA6201
:101940004BE000233B6144E07B68DB6A7A68D26A43
:10195000126822F040521A603B69002B07D17B6865
:10196000DB6A7A68D26A126842F080521A607B6839
:10197000DB6A40F2F4525A607B695A1E3B699A4214
:1019800016D17B68DB6A7A68D26A126842F000522C
:101990001A607B69254A02FB03F23B68134403F299
:1019A000F453FB607B68DB6AFA68C2F30C025A608E
:1019B0007B68DB6A7A68D26A126842F000421A6079
:1019C0007B68DB6ADB681A467B68DA623B69013355
:1019D0003B613A697B699A42B6D37B681B6803F521
:1019E000805314331B6803F00403002B0DD07B6875
:1019F0001B6803F58053143304221A607B681B684C
:101A000003F58053043300221A607B68012283F8B7
:101A100044207B68002283F84520002318461C37A9
:101A2000BD465DF8047B70470BB002AC0CFAFFFFBB
:101A300080B485B000AF78600023FB607B6893F8CA
:101A40004530012B01D1022374E07B68012283F829
:101A500045207B68022283F844205AE0FB6801336A
:101A6000FB607B689B6A1B6803F44073B3F5007FDF
:101A70000DD17B689A6A7B681A637B6801229A633E
:101A80007B689B6ADB681A467B689A6241E07B68E8
:101A90009B6A1B6803F44073002B0BD17B689B6B24
:101AA0005A1C7B689A637B689B6ADB681A467B6872
:101AB0009A622EE07B689A6A7B685A637B689B6BAC
:101AC0005A1C7B689A637B689B6B012B03D17B68F4
:101AD0009A6A7B681A637B689B6A1B681B0CC3F35A
:101AE0000D031A1F7B68DA637B681B6B9A687B683F
:101AF0001A647B689B6ADB681A467B689A627B681B
:101B0000012283F844207B68002283F845200023CB
:101B100010E07B689B6A1B68002B02DBFB68032BD1
:101B20009CD97B68012283F844207B68002283F8DB
:101B30004520012318461437BD465DF8047B7047E5
:101B400080B582B000AF78607B681B6803F5805376
:101B500014331B6803F04003402B12D1786803F064
:101B6000D1F87B681B6803F58053143340221A6058
:101B70007B68012283F844207B68002283F845209B
:101B80001BE07B681B6803F5805314331B6803F06C
:101B90000103012B11D1786800F039F87B681B68CC
:101BA00003F58053143301221A607B68012283F805
:101BB00044207B68002283F845207B681B6803F57E
:101BC000805314334FF480321A607B681B6803F52E
:101BD000805314331B6803F40043B3F5004F12D154
:101BE000786800F01EF87B681B6803F58053143397
:101BF0004FF400421A607B68012283F844207B681E
:101C0000002283F8452000BF0837BD4680BD80B460
:101C100083B000AF786000BF0C37BD465DF8047B31
:101C2000704780B483B000AF786000BF0C37BD460A
:101C30005DF8047B704780B586B000AFF8600B4656
:101C40007A607B8100237B6100233B61FB6893F812
:101C50004430DBB2822B01D1022350E0FB688222A8
:101C600083F84420FB681B681B697B617B6903F078
:101C70001C037B61FB681B8ADB029BB27A691343FE
:101C80007B617B899B0103F4F8637A6913437B6171
:101C90007B6923F002037B617B6943F001037B6175
:101CA000FB681B687A691A61FFF73AFA386115E038
:101CB000FFF736FA02463B69D31AB3F5803F09D3E2
:101CC000FB68012283F84420FB68002283F845204A
:101CD000032314E0FB681B681B697B617B6903F0CD
:101CE0000103002BE4D1FB681B685B699BB21A46B9
:101CF0007B681A60FB68012283F8442000231846A1
:101D00001837BD4680BD80B586B000AFF8600B4681
:101D10007A607B8100237B6100233B61FB6893F841
:101D20004430DBB2422B01D102234EE0FB68422259
:101D300083F84420FB681B681B697B617B6903F0A7
:101D40001C037B61FB681B8ADB029BB27A6913432D
:101D50007B617B899B0103F4F8637A6913437B61A0
:101D60007B6943F002037B617B6943F001037B6184
:101D7000FB681B687A6892B25A61FB681B687A69D3
:101D80001A61FFF7CDF9386115E0FFF7C9F902468E
:101D90003B69D31AB3F5803F09D3FB68012283F86E
:101DA0004420FB68002283F8452003230DE0FB68F4
:101DB0001B681B697B617B6903F00103002BE4D185
:101DC000FB68012283F84420002318461837BD46DB
:101DD00080BD80B582B000AF78607B6893F84530F5
:101DE000012B01D102231FE07B68012283F84520EB
:101DF0007B68022283F84420786800F019FA78683A
:101E000000F033FA786800F07DFA786800F04AFA5A
:101E1000786800F05FFA7B68012283F844207B68D1
:101E2000002283F84520002318460837BD4680BDB0
:101E300080B5B0B000AF786039600023C7F8BC301F
:101E40003B68002B07D07B684FF40062DA607B6848
:101E50004FF480429A600023BB640023FB6400239C
:101E60003B6500237B650023BB650023FB657B6826
:101E7000DB69002B03D14FF480633B6601E0002354
:101E80003B664FF400737B660023BB660023FB6652
:101E900000233B6700237B670023BB674023FB676E
:101EA0000023C7F880300023C7F884300023C7F828
:101EB00088300023C7F88C300023C7F89030002307
:101EC000C7F894300023C7F898300023C7F89C3037
:101ED0008023C7F8A0300023C7F8A4300023C7F838
:101EE000A8300023C7F8AC300023C7F8B030002377
:101EF000C7F8B4300023C7F8B8307B681B681B688C
:101F0000C7F8BC30D7F8BC20AB4B1340C7F8BC3087
:101F1000BA6CFB6C1A433B6D1A437B6D1A437B68AA
:101F20009B681A43BB6D1A43FB6D1A437B68DB68E1
:101F30001A433B6E1A437B6E1A43BB6E1A43FB6E09
:101F40001A433B6F1343D7F8BC201343C7F8BC3088
:101F50007B681B68D7F8BC201A607B681B681B680D
:101F6000C7F8BC300120FFF7E7F87B681B68D7F89B
:101F7000BC201A607B681B68796FBA6F1143FA6FD7
:101F80001143D7F880201143D7F884201143D7F8A4
:101F900088201143D7F88C201143D7F890200A43AA
:101FA0005A607B681B685B68C7F8BC300120FFF78C
:101FB000C3F87B681B68D7F8BC205A607B681B6835
:101FC000D7F894209A607B681B68D7F89820DA606D
:101FD0007B681B689B69C7F8BC30D7F8BC204FF6FC
:101FE00041731340C7F8BC30D7F89C301A04D7F8B7
:101FF000A0301A43D7F8A4301A43D7F8A8301A43B0
:10200000D7F8AC301A43D7F8B0301343D7F8BC2018
:102010001343C7F8BC307B681B68D7F8BC209A61B3
:102020007B681B689B69C7F8BC300120FFF784F808
:102030007B681B68D7F8BC209A617B681B68D7F85F
:10204000B410D7F8B8200A43DA617B681B68DB69F3
:10205000C7F8BC300120FFF76FF87B681B68D7F822
:10206000BC20DA610023BB604FF00073FB600023EB
:102070003B614FF400137B610023BB610023FB61D4
:1020800000233B6200237B620423BB624FF000739A
:10209000FB624FF480333B634FF480037B634FF468
:1020A0000053BB638023FB6300233B6400237B64FA
:1020B0007B681B6803F5805318331B68C7F8BC3076
:1020C000D7F8BC203D4B1340C7F8BC30BA68FB685A
:1020D0001A433B691A437B691A43BB691A43FB697C
:1020E0001A433B6A1A437B6A1A43BB6A1343D7F805
:1020F000BC201343C7F8BC307B681B6803F58053D2
:102100001833D7F8BC201A607B681B6803F580532E
:1021100018331B68C7F8BC300120FFF70DF87B6847
:102120001B6803F580531833D7F8BC201A607B680E
:102130001B68F96A3A6B11437A6B1143BA6B11430E
:10214000FA6B11433A6C920011437A6C0A4342F4E1
:10215000000203F580531A607B681B6803F5805307
:102160001B68C7F8BC300120FEF7E6FF7B681B68E0
:1021700003F58053D7F8BC201A607B689B69012B5C
:102180000FD17B6819687B681B6803F580531C338B
:102190001B6843F4803242F0400201F580531C3347
:1021A0001A607B685B691A460021786800F008F8BD
:1021B00000BFC037BD4680BD0F8120FF233FDEF842
:1021C00080B487B000AFF860B9607A607B6805338F
:1021D0001B781B027A680432127813437B61BA6859
:1021E000114B13441A467B6913607B6803331B78D9
:1021F0001A067B6802331B781B041A437B68013381
:102200001B781B0213437A68127813437B61BA6808
:10221000064B13441A467B69136000BF1C37BD464A
:102220005DF8047B704700BF40800240448002405C
:1022300080B584B000AF78600023FB607B681B68CA
:102240007A681268126842F008021A607B681B689C
:102250001B68FB60012000F07FF87B681B68FA6850
:102260001A6000BF1037BD4680BD80B584B000AF96
:1022700078600023FB607B681B687A6812681268CC
:1022800042F004021A607B681B681B68FB60012037
:1022900000F062F87B681B68FA681A6000BF1037AC
:1022A000BD4680BD80B483B000AF78607B6819689C
:1022B0007B681B6803F5805318331B6843F4005296
:1022C00001F5805318331A6000BF0C37BD465DF826
:1022D000047B704780B483B000AF78607B68196876
:1022E0007B681B6803F5805318331B6843F00202B8
:1022F00001F5805318331A6000BF0C37BD465DF8F6
:10230000047B704780B584B000AF78600023FB6029
:102310007B6819687B681B6803F5805318331B685A
:1023200043F4801201F5805318331A607B681B68F0
:1023300003F5805318331B68FB60012000F00CF894
:102340007B681B68FA6803F5805318331A6000BF76
:102350001037BD4680BD000080B485B000AF786006
:102360000A4B1B680A4AA2FB03235B0A7A6802FB3A
:1023700003F3FB6000BFFB685A1EFA60002BF9D123
:1023800000BF1437BD465DF8047B70470000002095
:10239000D34D621080B489B000AF786039600023FB
:1023A0007B6100233B610023BB610023FB6177E17C
:1023B0000122FB6902FA03F37B613B681A687B69BF
:1023C00013403B613A697B699A4240F066813B6801
:1023D0005B6803F00303012B05D03B685B6803F0E7
:1023E0000303022B30D17B689B68BB61FB695B00F8
:1023F000032202FA03F3DB43BA691340BB613B6873
:10240000DA68FB695B0002FA03F3BA691343BB6144
:102410007B68BA699A607B685B68BB610122FB6973
:1024200002FA03F3DB43BA691340BB613B685B68A4
:102430001B0903F00102FB6902FA03F3BA691343B3
:10244000BB617B68BA695A603B685B6803F0030351
:10245000032B17D07B68DB68BB61FB695B00032241
:1024600002FA03F3DB43BA691340BB613B689A6825
:10247000FB695B0002FA03F3BA691343BB617B6833
:10248000BA69DA603B685B6803F00303022B23D16F
:10249000FB69DA087B68083253F82230BB61FB69BC
:1024A00003F007039B000F2202FA03F3DB43BA6930
:1024B0001340BB613B681A69FB6903F007039B008B
:1024C00002FA03F3BA691343BB61FB69DA087B685C
:1024D0000832B96943F822107B681B68BB61FB694D
:1024E0005B00032202FA03F3DB43BA691340BB61CA
:1024F0003B685B6803F00302FB695B0002FA03F3CD
:10250000BA691343BB617B68BA691A603B685B6850
:1025100003F08053002B00F0C0800023FB60654A6D
:10252000644B5B6C43F480435364624B5B6C03F419
:102530008043FB60FB68604AFB699B08023352F8EA
:102540002330BB61FB6903F003039B000F2202FAF7
:1025500003F3DB43BA691340BB617B68574A93427C
:1025600037D07B68564A934231D07B68554A9342B4
:102570002BD07B68544A934225D07B68534A9342C0
:102580001FD07B68524A934219D07B68514A9342CC
:1025900013D07B68504A93420DD07B684F4A9342D8
:1025A00007D07B684E4A934201D1092312E00A23E7
:1025B00010E008230EE007230CE006230AE00523C1
:1025C00008E0042306E0032304E0022302E00123E1
:1025D00000E00023FA6902F0030292009340BA6916
:1025E0001343BB613449FB699B080233BA6941F864
:1025F00023203C4B1B68BB613B69DB43BA6913403A
:10260000BB613B685B6803F48033002B03D0BA697D
:102610003B691343BB61334ABB691360314B5B6851
:10262000BB613B69DB43BA691340BB613B685B68D4
:1026300003F40033002B03D0BA693B691343BB6139
:10264000284ABB695360274B9B68BB613B69DB43EE
:10265000BA691340BB613B685B6803F48013002BCD
:1026600003D0BA693B691343BB611E4ABB699360DF
:102670001C4BDB68BB613B69DB43BA691340BB6140
:102680003B685B6803F40013002B03D0BA693B6915
:102690001343BB61134ABB69D360FB690133FB6120
:1026A000FB690F2B7FF684AE00BF2437BD465DF873
:1026B000047B7047003802400038014000000240AF
:1026C0000004024000080240000C024000100240DA
:1026D0000014024000180240001C0240002002408A
:1026E00000240240003C014080B483B000AF786019
:1026F0000B467B8013467B707B78002B03D07A8857
:102700007B689A6103E07B881A047B689A6100BF4A
:102710000C37BD465DF8047B704780B485B000AFD0
:1027200078600B467B807B685B69FB607A88FB681E
:1027300013401A04FB68D9437B880B401A437B681B
:102740009A6100BF1437BD465DF8047B70470000F6
:1027500090B585B000AF78607B68002B01D1012374
:102760001FE17B6893F83D30DBB2002B06D17B681C
:10277000002283F83C207868FEF7C4F97B682422A5
:1027800083F83D207B681B687A681268126822F023
:1027900001021A607B681B687A681268126842F44A
:1027A00000421A607B681B687A681268126822F41B
:1027B00000421A6001F068FCF8607B685B687B4A45
:1027C000934207D8FB687A4A934294BF01230023BF
:1027D000DBB206E0FB68774A934294BF01230023F3
:1027E000DBB2002B01D00123DBE0FB68724AA2FBC5
:1027F00003239B0CBB607B681B687A681268526875
:1028000022F03F01BA680A435A607B681A687B6805
:102810001B681B6A23F03F017B685B686348834247
:1028200002D8BB68013309E0BB684FF4967000FB27
:1028300003F36248A0FB03039B0901330B431362BC
:102840007B6818687B681B68DB6923F44F4222F0C1
:10285000FF027B685B6855498B420DD8FB68591EA7
:102860007B685B685B00B1FBF3F30133C3F30B03DD
:10287000042B38BF04234FE07B689B68002B11D1E9
:10288000FB685C1E7B6859680B465B000B44B4FB1D
:10289000F3F30133C3F30B03002B0CBF012300231D
:1028A000DBB212E0FB685C1E7B6859680B469B003C
:1028B0000B4499000B44B4FBF3F30133C3F30B0354
:1028C000002B0CBF01230023DBB2002B01D001231E
:1028D00022E07B689B68002B0ED1FB685C1E7B6846
:1028E00059680B465B000B44B4FBF3F30133C3F3AD
:1028F0000B0343F400430FE0FB685C1E7B685968E0
:102900000B469B000B4499000B44B4FBF3F30133DB
:10291000C3F30B0343F440431343C3617B681B6859
:102920007A681268126822F0C0017A68D0697A6801
:10293000126A02430A431A607B681A687B681B6844
:102940009B6823F4034323F0FF03796808697968DF
:10295000C96801430B4393607B681B687A681268FF
:10296000D26822F0FF017A6850697A68926902435E
:102970000A43DA607B681B687A681268126842F062
:1029800001021A607B6800221A647B68202283F8A7
:102990003D207B6800221A637B68002283F83E207A
:1029A000002318461437BD4690BD00BFA086010025
:1029B0007F841E00FF083D0083DE1B43D34D621061
:1029C00080B588B002AFF860084611461A46034643
:1029D0007B810B463B811346FB80FEF7A1FB7861B0
:1029E000FB6893F83D30DBB2202B40F0D9807B6947
:1029F0000093192301226D49F86800F07DFC03461D
:102A0000002B01D00223CCE0FB6893F83C30012B73
:102A100001D10223C5E0FB68012283F83C20FB685A
:102A20001B681B6803F00103012B07D0FB681B68C0
:102A3000FA681268126842F001021A60FB681B68AB
:102A4000FA681268126822F400621A60FB68212298
:102A500083F83D20FB68402283F83E20FB6800227B
:102A60001A64FB683A6A5A62FB68BA8C5A85FB683A
:102A70005B8D9AB2FB681A85FB684D4ADA62F8886A
:102A80003A8979897B690193BB6A00930346F868A8
:102A900000F0B6FA0346002B52D0012381E07A6998
:102AA000B96AF86800F0FEFC0346002B0DD0FB6805
:102AB0001B6C042B07D1FB681B68FA68126812684C
:102AC00042F400721A6001236BE0FB681B68FA682D
:102AD000526A12781A61FB685B6A5A1CFB685A6278
:102AE000FB681B8D013B9AB2FB681A85FB685B8D06
:102AF0009BB2013B9AB2FB685A85FB681B685B6915
:102B000003F00403042B1BD1FB681B8D002B17D093
:102B1000FB681B68FA68526A12781A61FB685B6A84
:102B20005A1CFB685A62FB681B8D013B9AB2FB681A
:102B30001A85FB685B8D9BB2013B9AB2FB685A8594
:102B4000FB681B8D002BAAD17A69B96AF86800F07E
:102B5000EAFC0346002B0DD0FB681B6C042B07D14D
:102B6000FB681B68FA681268126842F400721A6007
:102B7000012316E0FB681B68FA681268126842F4C9
:102B800000721A60FB68202283F83D20FB68002257
:102B900083F83E20FB68002283F83C20002300E0FD
:102BA000022318461837BD4680BD00BF0200100042
:102BB0000000FFFF80B58CB002AFF86008461146F8
:102BC0001A4603467B810B463B811346FB80FEF78A
:102BD000A7FA7862FB6893F83D30DBB2202B40F017
:102BE00008827B6A0093192301227B49F86800F070
:102BF00083FB0346002B01D00223FBE1FB6893F823
:102C00003C30012B01D10223F4E1FB68012283F85F
:102C10003C20FB681B681B6803F00103012B07D0F5
:102C2000FB681B68FA681268126842F001021A60B9
:102C3000FB681B68FA681268126822F400621A6066
:102C4000FB68222283F83D20FB68402283F83E2067
:102C5000FB6800221A64FB683A6B5A62FB68BA8E02
:102C60005A85FB685B8D9AB2FB681A85FB685B4AE4
:102C7000DA62F8883A8979897B6A0193BB6B0093A1
:102C80000346F86800F050FA0346002B01D00123F8
:102C9000B0E1FB681B8D002B13D100233B62FB6866
:102CA0001B685B693B62FB681B689B693B623B6A14
:102CB000FB681B68FA681268126842F400721A60B6
:102CC00084E1FB681B8D012B1BD1FB681B68FA6834
:102CD0001268126822F480621A600023FB61FB68AC
:102CE0001B685B69FB61FB681B689B69FB61FB6997
:102CF000FB681B68FA681268126842F400721A6076
:102D000064E1FB681B8D022B1BD1FB681B68FA6812
:102D10001268126822F480621A60FB681B68FA6805
:102D20001268126842F400621A600023BB61FB68FB
:102D30001B685B69BB61FB681B689B69BB61BB6906
:102D400044E100237B61FB681B685B697B61FB6876
:102D50001B689B697B617B6938E1FB681B8D032BDA
:102D600000F2F180FB681B8D012B23D17A6AB96BCD
:102D7000F86800F019FC0346002B01D0012339E16B
:102D8000FB685B6AFA6812681269D2B21A70FB6853
:102D90005B6A5A1CFB685A62FB681B8D013B9AB246
:102DA000FB681A85FB685B8D9BB2013B9AB2FB689E
:102DB0005A850BE1FB681B8D022B4ED17B6A009379
:102DC000BB6B00220649F86800F096FA0346002B18
:102DD00008D001230EE100BF020010000000FFFF39
:102DE00004000100FB681B68FA681268126842F46C
:102DF00000721A60FB685B6AFA6812681269D2B2E4
:102E00001A70FB685B6A5A1CFB685A62FB681B8D70
:102E1000013B9AB2FB681A85FB685B8D9BB2013B54
:102E20009AB2FB685A85FB685B6AFA681268126995
:102E3000D2B21A70FB685B6A5A1CFB685A62FB6864
:102E40001B8D013B9AB2FB681A85FB685B8D9BB2B8
:102E5000013B9AB2FB685A85B8E07B6A0093BB6B72
:102E600000226649F86800F047FA0346002B01D0BB
:102E70000123BFE0FB681B68FA681268126822F43D
:102E800080621A60FB685B6AFA6812681269D2B2E3
:102E90001A70FB685B6A5A1CFB685A62FB681B8DE0
:102EA000013B9AB2FB681A85FB685B8D9BB2013BC4
:102EB0009AB2FB685A857B6A0093BB6B00224F492C
:102EC000F86800F019FA0346002B01D0012391E0C5
:102ED000FB681B68FA681268126842F400721A6094
:102EE000FB685B6AFA6812681269D2B21A70FB68F2
:102EF0005B6A5A1CFB685A62FB681B8D013B9AB2E5
:102F0000FB681A85FB685B8D9BB2013B9AB2FB683C
:102F10005A85FB685B6AFA6812681269D2B21A7045
:102F2000FB685B6A5A1CFB685A62FB681B8D013B9D
:102F30009AB2FB681A85FB685B8D9BB2013B9AB223
:102F4000FB685A8542E07A6AB96BF86800F02CFB9E
:102F50000346002B01D001234CE0FB685B6AFA6852
:102F600012681269D2B21A70FB685B6A5A1CFB685D
:102F70005A62FB681B8D013B9AB2FB681A85FB689D
:102F80005B8D9BB2013B9AB2FB685A85FB681B685C
:102F90005B6903F00403042B18D1FB685B6AFA68D1
:102FA00012681269D2B21A70FB685B6A5A1CFB681D
:102FB0005A62FB681B8D013B9AB2FB681A85FB685D
:102FC0005B8D9BB2013B9AB2FB685A85FB681B8DF7
:102FD000002B7FF4C2AEFB68202283F83D20FB6803
:102FE000002283F83E20FB68002283F83C20002367
:102FF00000E0022318462837BD4680BD04000100CA
:1030000080B588B002AFF860084611461A460346FC
:103010007B810B463B811346FB80FB681B68FA688B
:103020001268126842F480721A607B6A00933B6AED
:1030300000224FF00111F86800F05EF90346002B02
:103040000DD0FB681B681B6803F48073B3F5807FA9
:1030500003D1FB684FF400721A6403235EE0FB683F
:103060001B687A89D2B202F0FE021A617B6A3A6A60
:103070002C49F86800F097F90346002B01D0012392
:103080004CE000237B61FB681B685B697B61FB682C
:103090001B689B697B617B697A6A396AF86800F012
:1030A00001FA0346002B0DD0FB681B6C042B07D1E3
:1030B000FB681B68FA681268126842F400721A60B2
:1030C00001232BE0FB88012B05D1FB681B683A89A3
:1030D000D2B21A6121E0FB681B683A89120A92B2E7
:1030E000D2B21A617A6A396AF86800F0DBF90346ED
:1030F000002B0DD0FB681B6C042B07D1FB681B68F1
:10310000FA681268126842F400721A60012305E03E
:10311000FB681B683A89D2B21A6100231846183737
:10312000BD4680BD0200010080B588B002AFF860E6
:10313000084611461A4603467B810B463B811346DF
:10314000FB80FB681B68FA681268126842F48062B0
:103150001A60FB681B68FA681268126842F4807291
:103160001A607B6A00933B6A00224FF00111F868F5
:1031700000F0C2F80346002B0DD0FB681B681B68EB
:1031800003F48073B3F5807F03D1FB684FF40072C2
:103190001A640323A9E0FB681B687A89D2B202F0A3
:1031A000FE021A617B6A3A6A5249F86800F0FBF83D
:1031B0000346002B01D0012397E000237B61FB68CD
:1031C0001B685B697B61FB681B689B697B617B6932
:1031D0007A6A396AF86800F065F90346002B0DD069
:1031E000FB681B6C042B07D1FB681B68FA6812682C
:1031F000126842F400721A60012376E0FB88012B0A
:1032000005D1FB681B683A89D2B21A6121E0FB68DC
:103210001B683A89120A92B2D2B21A617A6A396A82
:10322000F86800F03FF90346002B0DD0FB681B6CDB
:10323000042B07D1FB681B68FA681268126842F415
:1032400000721A60012350E0FB681B683A89D2B211
:103250001A617A6A396AF86800F024F90346002B8B
:103260000DD0FB681B6C042B07D1FB681B68FA6848
:103270001268126842F400721A60012335E0FB689C
:103280001B68FA681268126842F480721A607B6ADE
:1032900000933B6A00224FF00111F86800F02CF80F
:1032A0000346002B0DD0FB681B681B6803F480737A
:1032B000B3F5807F03D1FB684FF400721A640323D7
:1032C00013E0FB681B687A89D2B242F00102D2B2E5
:1032D0001A617B6A3A6A0749F86800F064F80346A5
:1032E000002B01D0012300E0002318461837BD460B
:1032F00080BD00BF0200010080B584B000AFF8605F
:10330000B9603B601346FB7125E03B68B3F1FF3FBA
:1033100021D0FDF705FF0246BB69D21A3B689A42ED
:1033200002D83B68002B16D1FB6800221A63FB68A9
:10333000202283F83D20FB68002283F83E20FB68B2
:103340001B6C43F02002FB681A64FB68002283F8C0
:103350003C20012323E0BB681B0CDBB2012B0DD109
:10336000FB681B685B69DA43BB6813409BB2002BA8
:103370000CBF01230023DBB21A460CE0FB681B687C
:103380009B69DA43BB6813409BB2002B0CBF01233F
:103390000023DBB21A46FB799A42B6D000231846C6
:1033A0001037BD4680BD80B584B000AFF860B9600D
:1033B0007A603B6051E0FB681B685B6903F48063E3
:1033C000B3F5806F23D1FB681B68FA681268126836
:1033D00042F400721A60FB681B686FF480625A61E5
:1033E000FB6800221A63FB68202283F83D20FB68FB
:1033F000002283F83E20FB681B6C43F00402FB684C
:103400001A64FB68002283F83C20012346E07B68B5
:10341000B3F1FF3F21D0FDF783FE02463B68D21A8D
:103420007B689A4202D87B68002B16D1FB68002289
:103430001A63FB68202283F83D20FB68002283F892
:103440003E20FB681B6C43F02002FB681A64FB689B
:10345000002283F83C20012320E0BB681B0CDBB278
:10346000012B0CD1FB681B685B69DA43BB68134016
:103470009BB2002B14BF01230023DBB20BE0FB68DF
:103480001B689B69DA43BB6813409BB2002B14BFD7
:1034900001230023DBB2002B8DD100231846103707
:1034A000BD4680BD80B584B000AFF860B9607A6079
:1034B0002DE0F86800F0CEF80346002B01D0012380
:1034C0002DE0BB68B3F1FF3F21D0FDF729FE024696
:1034D0007B68D21ABB689A4202D8BB68002B16D10F
:1034E000FB6800221A63FB68202283F83D20FB68FA
:1034F000002283F83E20FB681B6C43F02002FB682F
:103500001A64FB68002283F83C20012307E0FB6873
:103510001B685B6903F08003802BCAD10023184627
:103520001037BD4680BD80B584B000AFF860B9608B
:103530007A602DE0F86800F08DF80346002B01D08A
:1035400001232DE0BB68B3F1FF3F21D0FDF7E8FD7B
:1035500002467B68D21ABB689A4202D8BB68002B2D
:1035600016D1FB6800221A63FB68202283F83D20F5
:10357000FB68002283F83E20FB681B6C43F02002AE
:10358000FB681A64FB68002283F83C20012307E0F3
:10359000FB681B685B6903F00403042BCAD100239A
:1035A00018461037BD4680BD80B584B000AFF860C6
:1035B000B9607A6042E0FB681B685B6903F0100346
:1035C000102B19D1FB681B686FF010025A61FB6861
:1035D00000221A63FB68202283F83D20FB6800224A
:1035E00083F83E20FB681A6CFB681A64FB680022B3
:1035F00083F83C20012329E0FDF792FD02467B6819
:10360000D21ABB689A4202D8BB68002B16D1FB685D
:1036100000221A63FB68202283F83D20FB68002209
:1036200083F83E20FB681B6C43F02002FB681A64A1
:10363000FB68002283F83C20012307E0FB681B683D
:103640005B6903F04003402BB5D1002318461037C7
:10365000BD4680BD80B483B000AF78607B681B68D6
:103660005B6903F48063B3F5806F1BD17B681B68D3
:103670006FF480625A617B6800221A637B682022A3
:1036800083F83D207B68002283F83E207B681B6C1A
:1036900043F004027B681A647B68002283F83C20B4
:1036A000012300E0002318460C37BD465DF8047B7B
:1036B000704780B483B000AF786039607B6893F85E
:1036C0003D30DBB2202B29D17B68242283F83D20BA
:1036D0007B681B687A681268126822F001021A601F
:1036E0007B681B687A681268526A22F010025A627C
:1036F0007B681B687A681268516A3A680A435A62A2
:103700007B681B687A681268126842F001021A60CE
:103710007B68202283F83D20002300E00223184626
:103720000C37BD465DF8047B704780B485B000AFB0
:10373000786039600023FB817B6893F83D30DBB211
:10374000202B2AD17B68242283F83D207B681B68CC
:103750007A681268126822F001021A607B681B689E
:103760005B6AFB81FB8923F00F03FB813B689AB204
:10377000FB891343FB817B681B68FA895A627B686B
:103780001B687A681268126842F001021A607B684E
:10379000202283F83D20002300E00223184614373E
:1037A000BD465DF8047B704780B582B000AF002352
:1037B0007B6000233B60204A1F4B1B6C43F080530F
:1037C00013641D4B1B6C03F080533B603B681B4B29
:1037D00001221A60FDF7A4FC786009E0FDF7A0FC67
:1037E00002467B68D31AB3F57A7F01D903231FE021
:1037F000134B5B6803F48033B3F5803FEED1114B7C
:1038000001221A60FDF78CFC786009E0FDF788FC66
:1038100002467B68D31AB3F57A7F01D9032307E008
:10382000074B5B6803F40033B3F5003FEED1002390
:1038300018460837BD4680BD0038024040000E42A1
:103840000070004044000E4280B586B000AF786042
:103850007B68002B01D1012364E27B681B6803F0C5
:103860000103002B75D0A34B9B6803F00C03042BC2
:103870000CD0A04B9B6803F00C03082B12D19D4B7E
:103880005B6803F48003B3F5800F0BD1994B1B6881
:1038900003F40033002B5BD07B685B68002B57D1AF
:1038A00001233FE27B685B68B3F5803F06D1914A14
:1038B000904B1B6843F4803313601DE07B685B68AA
:1038C000B3F5A02F0CD18B4A8A4B1B6843F480239D
:1038D0001360884A874B1B6843F4803313600BE006
:1038E000844A844B1B6823F480331360814A814BE4
:1038F0001B6823F4802313607B685B68002B13D064
:10390000FDF70EFC386108E0FDF70AFC02463B6952
:10391000D31A642B01D9032304E2764B1B6803F40A
:103920000033002BF0D014E0FDF7FAFB386108E01B
:10393000FDF7F6FB02463B69D31A642B01D903233A
:10394000F0E16C4B1B6803F40033002BF0D100E076
:1039500000BF7B681B6803F00203002B63D0654B3C
:103960009B6803F00C03002B0BD0624B9B6803F0A9
:103970000C03082B1CD15F4B5B6803F48003002B06
:1039800016D15C4B1B6803F00203002B05D07B684B
:10399000DB68012B01D00123C4E15649554B1B685C
:1039A00023F0F8027B681B69DB0013430B603AE0ED
:1039B0007B68DB68002B20D04F4B01221A60FDF79B
:1039C000AFFB386108E0FDF7ABFB02463B69D31A59
:1039D000022B01D90323A5E1464B1B6803F0020328
:1039E000002BF0D04349434B1B6823F0F8027B685F
:1039F0001B69DB0013430B6015E03F4B00221A608C
:103A0000FDF78EFB386108E0FDF78AFB02463B6953
:103A1000D31A022B01D9032384E1364B1B6803F030
:103A20000203002BF0D17B681B6803F00803002B16
:103A300030D07B685B69002B16D0304B01221A60B6
:103A4000FDF76EFB386108E0FDF76AFB02463B6953
:103A5000D31A022B01D9032364E1264B5B6F03F0D9
:103A60000203002BF0D015E0244B00221A60FDF772
:103A700057FB386108E0FDF753FB02463B69D31A58
:103A8000022B01D903234DE11A4B5B6F03F00203B4
:103A9000002BF0D17B681B6803F00403002B00F0BF
:103AA000A0800023FB75134B1B6C03F08053002B8D
:103AB0000FD10023BB600F4A0E4B1B6C43F08053A9
:103AC00013640C4B1B6C03F08053BB60BB68012379
:103AD000FB750B4B1B6803F48073002B21D1084A44
:103AE000074B1B6843F480731360FDF719FB3861C3
:103AF00011E000BF0038024000004742800E4742FC
:103B000000700040FDF70CFB02463B69D31A022B04
:103B100001D9032306E1854B1B6803F48073002B56
:103B2000F0D07B689B68012B06D1814A804B1B6FCC
:103B300043F0010313671CE07B689B68052B0CD1E5
:103B40007B4A7B4B1B6F43F004031367784A784B27
:103B50001B6F43F0010313670BE0754A744B1B6F37
:103B600023F001031367724A714B1B6F23F00403A8
:103B700013677B689B68002B15D0FDF7D1FA38617D
:103B80000AE0FDF7CDFA02463B69D31A41F28832CA
:103B9000934201D90323C5E0654B1B6F03F0020379
:103BA000002BEED014E0FDF7BBFA38610AE0FDF718
:103BB000B7FA02463B69D31A41F28832934201D9DF
:103BC0000323AFE05A4B1B6F03F00203002BEED12F
:103BD000FB7D012B05D1564A554B1B6C23F08053BE
:103BE00013647B689B69002B00F09B80504B9B68A3
:103BF00003F00C03082B5CD07B689B69022B41D13E
:103C00004C4B00221A60FDF78BFA386108E0FDF793
:103C100087FA02463B69D31A022B01D9032381E0BC
:103C2000434B1B6803F00073002BF0D140497B68C5
:103C3000DA697B681B6A1A437B685B6A9B011A43DB
:103C40007B689B6A5B08013B1B041A437B68DB6A49
:103C50001B0613434B60374B01221A60FDF760FAD5
:103C6000386108E0FDF75CFA02463B69D31A022B83
:103C700001D9032356E02E4B1B6803F00073002B81
:103C8000F0D04EE02B4B00221A60FDF749FA386164
:103C900008E0FDF745FA02463B69D31A022B01D929
:103CA00003233FE0224B1B6803F00073002BF0D18D
:103CB00037E07B689B69012B01D1012332E01C4B6B
:103CC0005B68FB607B689B69012B28D0FB6803F471
:103CD00080027B68DB699A4221D1FB6803F03F02D6
:103CE0007B681B6A9A421AD1FA6847F6C073134080
:103CF0007A68526A9201934211D1FB6803F4403210
:103D00007B689B6A5B08013B1B049A4207D1FB68F6
:103D100003F070627B68DB6A1B069A4201D00123C4
:103D200000E0002318461837BD4680BD00700040F3
:103D3000003802406000474280B584B000AF786030
:103D400039607B68002B01D10123CCE0684B1B68F4
:103D500003F00F023B689A420CD2654B3A68D2B22C
:103D60001A70634B1B6803F00F023B689A4201D044
:103D70000123B8E07B681B6803F00203002B20D00E
:103D80007B681B6803F00403002B05D0594A594B8C
:103D90009B6843F4E05393607B681B6803F008035F
:103DA000002B05D0534A534B9B6843F46043936008
:103DB0005049504B9B6823F0F0027B689B6813438B
:103DC0008B607B681B6803F00103002B44D07B6889
:103DD0005B68012B07D1474B1B6803F40033002BB2
:103DE00019D101237FE07B685B68022B03D07B68DD
:103DF0005B68032B07D13F4B1B6803F00073002B5C
:103E000009D101236FE03B4B1B6803F00203002B39
:103E100001D1012367E03749364B9B6823F0030249
:103E20007B685B6813438B60FDF77AF9F8600AE002
:103E3000FDF776F90246FB68D31A41F288329342C5
:103E400001D903234FE02B4B9B6803F00C027B68E6
:103E50005B689B009A42EBD1254B1B6803F00F0275
:103E60003B689A420CD9224B3A68D2B21A70204B66
:103E70001B6803F00F023B689A4201D0012332E035
:103E80007B681B6803F00403002B08D01949194B09
:103E90009B6823F4E0527B68DB6813438B607B688C
:103EA0001B6803F00803002B09D01249114B9B68D3
:103EB00023F460427B681B69DB0013438B6000F0D6
:103EC00021F801460B4B9B681B0903F00F030A4ABC
:103ED000D35C21FA03F3094A1360094B1B681846A7
:103EE000FCF7C2FE002318461037BD4680BD00BF58
:103EF000003C0240003802407CBE01080000002067
:103F0000040000202DE9F04F87B000AF0022FA60D6
:103F100000227A610022BA6000223A61514A926816
:103F200002F00C02042A07D0082A08D0002A40F028
:103F300090804D4B3B618FE04C4B3B618CE0494A9C
:103F4000526802F03F02FA60464A526802F4800268
:103F5000002A23D0434B5B689B094FF0000440F2DA
:103F6000FF114FF0000203EA010304EA02043F4A92
:103F700002FB04F1002202FB03F20A443B49A3FBCB
:103F8000010153181946FB684FF000041A462346F6
:103F9000FCF786F903460C467B614CE0314A5268D7
:103FA000920911464FF0000240F2FF154FF0000653
:103FB00005EA010506EA0206294632464FEA421B97
:103FC0004BEAD16B4FEA411A51465A46AA46B346CC
:103FD00055465E464D1B62EB060629463246940165
:103FE00044EA91648B015B1A64EB02044FEAC40952
:103FF00049EA53794FEAC30843464C4655465E4664
:10400000ED1846EB04062B463446A2027A607A6825
:1040100042EA93527A609B023B6097E81800184688
:104020002146FB684FF000041A462346FCF738F996
:1040300003460C467B610B4B5B681B0C03F00303D0
:1040400001335B00BB607A69BB68B2FBF3F33B6191
:1040500002E0054B3B6100BF3B6918461C37BD467B
:10406000BDE8F08F003802400024F40040787D0164
:1040700080B400AF034B1B681846BD465DF8047B57
:10408000704700BF0000002080B500AFFFF7F0FFD1
:104090000146054B9B689B0A03F00703034AD35C68
:1040A00021FA03F3184680BD003802408CBE010897
:1040B00080B500AFFFF7DCFF0146054B9B685B0B4B
:1040C00003F00703034AD35C21FA03F3184680BDCB
:1040D000003802408CBE010880B483B000AF786025
:1040E00039607B680F221A60124B9B6803F0030251
:1040F0007B685A600F4B9B6803F0F0027B689A6004
:104100000C4B9B6803F4E0527B68DA60094B9B68B8
:10411000DB0803F4E0527B681A61074B1B6803F06D
:104120000F023B681A6000BF0C37BD465DF8047B88
:10413000704700BF00380240003C024080B582B0AA
:1041400000AF78607B68002B01D101231CE07B6805
:104150005B79DBB2002B05D17B6800221A7178688D
:10416000FCF718FD7B6802225A717B681B687A682D
:104170001268126842F004021A607B6801225A71C8
:104180007B6800229A60002318460837BD4680BD30
:1041900080B582B000AF78607B68002B01D101232D
:1041A00041E07B6893F83D30DBB2002B06D17B68A1
:1041B000002283F83C20786800F039F87B680222FE
:1041C00083F83D207B681A687B68043319461046E3
:1041D00000F0D8F97B68012283F846207B68012231
:1041E00083F83E207B68012283F83F207B68012210
:1041F00083F840207B68012283F841207B680122FC
:1042000083F842207B68012283F843207B680122E7
:1042100083F844207B68012283F845207B680122D3
:1042200083F83D20002318460837BD4680BD80B482
:1042300083B000AF786000BF0C37BD465DF8047BEB
:104240007047000080B485B000AF78607B6893F859
:104250003D30DBB2012B01D001234EE07B6802220E
:1042600083F83D207B681B687A681268D26842F048
:104270000102DA607B681B68234A934222D07B6884
:104280001B68B3F1804F1DD07B681B681F4A9342A7
:1042900018D07B681B681E4A934213D07B681B684A
:1042A0001C4A93420ED07B681B681B4A934209D07C
:1042B0007B681B68194A934204D07B681B68184AC4
:1042C000934211D17B681B689B6803F00703FB6076
:1042D000FB68062B10D07B681B687A68126812682E
:1042E00042F001021A6007E07B681B687A68126876
:1042F000126842F001021A60002318461437BD46C6
:104300005DF8047B704700BF0000014000040040DE
:1043100000080040000C0040000401400040014043
:104320000018004080B582B000AF78607B681B68E1
:104330001B6903F00203022B22D17B681B68DB6838
:1043400003F00203022B1BD17B681B686FF0020293
:104350001A617B6801221A777B681B689B6903F0EE
:104360000303002B03D0786800F0EEF805E07868CE
:1043700000F0E0F8786800F0F1F87B6800221A7726
:104380007B681B681B6903F00403042B22D17B6844
:104390001B68DB6803F00403042B1BD17B681B68DC
:1043A0006FF004021A617B6802221A777B681B682F
:1043B0009B6903F44073002B03D0786800F0C4F8C5
:1043C00005E0786800F0B6F8786800F0C7F87B6818
:1043D00000221A777B681B681B6903F00803082B0F
:1043E00022D17B681B68DB6803F00803082B1BD114
:1043F0007B681B686FF008021A617B6804221A77D9
:104400007B681B68DB6903F00303002B03D078682B
:1044100000F09AF805E0786800F08CF8786800F011
:104420009DF87B6800221A777B681B681B6903F084
:104430001003102B22D17B681B68DB6803F010038C
:10444000102B1BD17B681B686FF010021A617B6810
:1044500008221A777B681B68DB6903F44073002B22
:1044600003D0786800F070F805E0786800F062F832
:10447000786800F073F87B6800221A777B681B6805
:104480001B6903F00103012B0ED17B681B68DB68FD
:1044900003F00103012B07D17B681B686FF0010259
:1044A0001A617868FCF7CAFA7B681B681B6903F01D
:1044B0008003802B0ED17B681B68DB6803F08003D0
:1044C000802B07D17B681B686FF080021A617868C7
:1044D00000F002F97B681B681B6903F04003402B66
:1044E0000ED17B681B68DB6803F04003402B07D1CB
:1044F0007B681B686FF040021A61786800F038F83A
:104500007B681B681B6903F02003202B0ED17B689E
:104510001B68DB6803F02003202B07D17B681B6836
:104520006FF020021A61786800F0CCF800BF0837FD
:10453000BD4680BD80B483B000AF786000BF0C374B
:10454000BD465DF8047B704780B483B000AF7860EF
:1045500000BF0C37BD465DF8047B704780B483B064
:1045600000AF786000BF0C37BD465DF8047B704734
:1045700080B483B000AF786000BF0C37BD465DF8F3
:10458000047B704780B485B000AF786039607B6889
:104590001B68FB607B68404A934213D07B68B3F191
:1045A000804F0FD07B683D4A93420BD07B683C4ADA
:1045B000934207D07B683B4A934203D07B683A4AD8
:1045C000934208D1FB6823F07003FB603B685B6893
:1045D000FA681343FB607B682F4A93422BD07B68B9
:1045E000B3F1804F27D07B682C4A934223D07B685D
:1045F0002B4A93421FD07B682A4A93421BD07B6888
:10460000294A934217D07B68284A934213D07B688B
:10461000274A93420FD07B68264A93420BD07B688F
:10462000254A934207D07B68244A934203D07B6893
:10463000234A934208D1FB6823F44073FB603B6834
:10464000DB68FA681343FB60FB6823F080023B6879
:104650005B691343FB607B68FA681A603B689A6881
:104660007B68DA623B681A687B689A627B680A4AF0
:10467000934203D07B680C4A934203D13B681A698A
:104680007B681A637B6801225A6100BF1437BD46FC
:104690005DF8047B704700BF00000140000400404B
:1046A00000080040000C00400004014000400140B0
:1046B000004401400048014000180040001C004038
:1046C0000020004080B483B000AF786000BF0C379A
:1046D000BD465DF8047B704780B483B000AF78605E
:1046E00000BF0C37BD465DF8047B704780B582B0D3
:1046F00000AF78607B68002B01D101233FE07B682D
:1047000093F83D30DBB2002B06D17B68002283F8A2
:104710003C207868FCF760FA7B68242283F83D200F
:104720007B681B687A681268D26822F40052DA60EB
:10473000786800F029F87B681B687A68126812694B
:1047400022F490421A617B681B687A681268526989
:1047500022F02A025A617B681B687A681268D26864
:1047600042F40052DA607B6800221A647B682022DF
:1047700083F83D207B68202283F83E2000231846E2
:104780000837BD4680BD00002DE9F04F91B000AF65
:1047900078637B6B19687B6B1B681B6923F4405241
:1047A0007B6BDB6813430B617B6B9A687B6B1B69CC
:1047B0001A437B6B5B691A437B6BDB691343BB63F7
:1047C0007B6B19687B6B1B68DB6823F4164222F055
:1047D0000C02BB6B1343CB607B6B19687B6B1B6854
:1047E0005B6923F440727B6B9B6913434B617B6B6A
:1047F0001A68BA4B9A4204D07B6B1A68B84B9A423B
:1048000003D1FFF755FCF86302E0FFF73DFCF863C6
:104810007B6BDB69B3F5004F40F0A7807B6B1A68B8
:10482000BA62FB6B19464FF000020B461446DB18C8
:1048300044EB04045B1844EB0204E00078617869FF
:1048400040EA53707861DB003B61D7E904345D18BE
:1048500044EB0206284631467B6B5B684FF0000450
:10486000DB1844EB04041A462346FBF719FD034604
:104870000C461A469B4BA3FB02235B091E01FB6BF4
:1048800019464FF000020B461446DB1844EB0404B3
:104890005B1844EB02044FEAC40B4BEA537B4FEA2C
:1048A000C30A53465C4613EB010A44EB020B504625
:1048B00059467B6B5B684FF00004DB1844EB040443
:1048C0001A462346FBF7ECFC03460C461A46854B7A
:1048D000A3FB02135B09642101FB03F3D31ADB0082
:1048E0003233804AA2FB03235B095B0003F4F873B5
:1048F0001E44FB6B19464FF000020B461446DB18B2
:1049000044EB04045B1844EB02044FEAC40949EA8F
:1049100053794FEAC30843464C4613EB010844EB76
:104920000209404649467B6B5B684FF00004DB1888
:1049300044EB04041A462346FBF7B2FC03460C463C
:104940001A46684BA3FB02135B09642101FB03F3C6
:10495000D31ADB003233634AA2FB03235B0903F063
:1049600007033344BA6A9360B3E07B6B1B683B6117
:10497000FB6B19464FF000020B461446DB1844EB64
:1049800004045B1844EB0204E60046EA5376DD00BB
:104990002B4634465D1844EB0206284631467B6BB5
:1049A0005B684FF00004A500FD62FD6A45EA93755F
:1049B000FD629C00BC62D7E90A23FBF771FC034649
:1049C0000C461A46474BA3FB02135B091D01FB6B08
:1049D00019464FF000020B461446DB1844EB040462
:1049E0005B1844EB0204E000F860F86840EA53709A
:1049F000F860D800B860D7E9023413EB010844EB43
:104A00000209404649467B6B5B684FF00004A600F4
:104A10007E627E6A46EA93767E629C003C62D7E9BB
:104A20000823FBF73DFC03460C461A462D4BA3FB1F
:104A300002135B09642101FB03F3D31A1B01323318
:104A4000284AA2FB03135B0903F0F0031D44FB6B30
:104A500019464FF000020B461446DB1844EB0404E1
:104A60005B1844EB0204E0007860786840EA537019
:104A70007860D800386097E8180013EB010844EB21
:104A80000209404649467B6B5B684FF00004A60074
:104A9000FE61FE6946EA9376FE619C00BC61D7E93F
:104AA0000623FBF7FDFB03460C461A460D4BA3FB02
:104AB00002135B09642101FB03F3D31A1B01323398
:104AC000084AA2FB03135B0903F00F032B443A6966
:104AD000936000BF4437BD46BDE8F08F0010014031
:104AE000001401401F85EB5180B584B004AF002154
:104AF000002006F08BF8164B00221A60154B00229E
:104B00001A60154B00221A60144B0293144B019348
:104B100000230093104B0F4A0D4912480BF02CFC58
:104B200010480BF021FD0F4B93F8373003F00403CE
:104B3000002B03D00B480BF027FD02E009480BF0D7
:104B400071FD084806F066FF00BFBD4680BD00BF8E
:104B500030A1012034A1012038A1012009AB0008B7
:104B6000D1510008F0A0012080B58EB000AF786070
:104B700007F1240300221A605A609A60DA601A6111
:104B80007B681B68594A934240F0AC8000233B622B
:104B9000574A574B1B6B43F000731363544B1B6B0B
:104BA00003F000733B623B6A0023FB61504A504BA9
:104BB0001B6B43F0806313634D4B1B6B03F08063EF
:104BC000FB61FB690023BB61494A494B1B6B43F006
:104BD00000631363464B1B6B03F00063BB61BB694F
:104BE00000237B61424A424B1B6B43F00403136377
:104BF0003F4B1B6B03F004037B617B6900233B612C
:104C00003B4A3B4B1B6B43F001031363384B1B6B5D
:104C100003F001033B613B690023FB60344A344BE2
:104C20001B6B43F002031363314B1B6B03F0020356
:104C3000FB60FB680023BB602D4A2D4B1B6B43F0D0
:104C4000400313632A4B1B6B03F04003BB60BB683C
:104C500032237B620223BB620023FB6203233B639C
:104C60000B237B6307F1240319462248FDF792FBCF
:104C700086237B620223BB620023FB6203233B6328
:104C80000B237B6307F1240319461B48FDF782FBC6
:104C90004FF400637B620223BB620023FB620323A9
:104CA0003B630B237B6307F1240319461348FDF78D
:104CB00071FB4FF4C0437B620223BB620023FB62A3
:104CC00003233B630B237B6307F1240319460C4842
:104CD000FDF760FB002205213D20FCF705FB3D2090
:104CE000FCF71EFB00BF3837BD4680BD0080024088
:104CF0000038024000080240000002400004024068
:104D00000018024080B582B000AF7860044B1B6889
:104D1000184600F051FC00BF0837BD4680BD00BFFB
:104D20004C070020B0B590B000AF78600023BB63A3
:104D3000634B644A1A60624B01225A60604B002246
:104D40001A82002387F83030802387F83130E1233E
:104D500087F83230002387F83330002387F8343067
:104D6000292387F83530564A07F130035361544BF5
:104D700001229A61524B0022DA61514B4FF400023A
:104D80001A6201210720FCF767F96420FCF7D4F9C7
:104D900000210720FCF760F96420FCF7CDF94848B2
:104DA000FCF7E8FA034687F83F3097F83F30002BCE
:104DB00008D17B6893F8373043F02603DAB27B687A
:104DC00083F837200423404A40493D48FCF770FCF3
:104DD00004233F4A3F493A48FCF7D3FC7B6806224C
:104DE00083F83020364B5B691A787B6883F8312072
:104DF000334B5B695A787B6883F83220304B5B69B0
:104E00009A787B6883F833202D4B5B69DA787B686E
:104E100083F834202A4B5B691A797B6883F8352044
:104E2000274B5B695A797B6883F836207B6840F2B0
:104E3000DC52DA857B6893F8373043F00A03DAB244
:104E40007B6883F837200023BB620023FB6207F1F5
:104E500028030121184600F02DFB02461E4B1A6064
:104E60001E4B07F10C041D460FCD0FC495E807003B
:104E700084E8070007F10C037968184600F01EFA71
:104E80000F48FCF7A6FF07F138031A461D210C480E
:104E9000FCF7D1FEBB6B43F00B03BB63BB6B1A4645
:104EA0001D210748FCF72FFF07F138031A461D2183
:104EB0000348FCF7C0FE00BF4037BD46B0BD00BF91
:104EC0000CBA01200080024054BA01203CA101200C
:104ED000BCA101208CB901204C070020888C01085E
:104EE00080B58AB000AF786039604B4BDB6A9B6855
:104EF000FB6100237B6100233B610023FB600023F7
:104F0000BB60454BDB6ABB6100233B613B683B6296
:104F10005AE0BB691B68002B03DAF82387F82730B7
:104F20005CE03B6A5B89FB600023BB602FE0FA69B1
:104F30003B69D0183B6A5A68BB68D1183B69C3F516
:104F4000BE6304331A4612F09AFEBB69DB68BB618C
:104F5000BB691B68002B03DAF82387F827303DE094
:104F6000BB699B68FB613A69FB681344A3F2F45385
:104F7000FB60BA683B69D31A03F2F453BB607A69E9
:104F80003B69D31A03F2F4537B6100233B61FA6857
:104F90003B69134440F2F4529342C8D8FA693B6922
:104FA000D0183B6A5A68BB681344FA68194612F075
:104FB00066FE3A69FB6813443B617A69FB681344F7
:104FC0007B613B6A1B683B623B6A002BA1D179691C
:104FD0001148FCF743FC002387F827300E4B1B6871
:104FE00003F5805314331B6803F02003002B0DD00E
:104FF000094B1B6803F58053143320221A60064BBB
:105000001B6803F58053043300221A6097F9273098
:1050100018462837BD4680BD0CBA012080B58CB03B
:1050200000AF78600023FB620023BB620023FB819A
:105030000023FB610023BB6100237B6100233B61F4
:105040004E48FCF7F5FC0346002B01D0002391E00D
:105050004A4BDB6BFB81494B1B6C7B62FB89002B52
:1050600006D0FB890322194604200BF05DFBF86291
:10507000FB6A002B4BD0414B1B6B3B620023FB6157
:10508000FB6ABB6240E0BB6A5B897B610023BB615A
:1050900021E0BB6A5A68BB69D0187A6AFB69D118EB
:1050A000FB69C3F5BE6304331A4612F0E8FD3B6AA0
:1050B000DB683B623B6A9B687B62FA697B691344ED
:1050C000A3F2F4537B61BA69FB69D31A03F2F45378
:1050D000BB610023FB617A69FB69134440F2F4521F
:1050E0009342D6D8BB6A5A68BB69D0187A6AFB6902
:1050F00013447A69194612F0C2FDFA697B691344B8
:10510000FB61BB6A1B68BB62BB6A002BBBD11B4B3C
:105110001B6B3B6200233B610BE03B6A1B6843F067
:1051200000423B6A1A603B6ADB683B623B690133C1
:105130003B61124B9A6B3B699A42EED80F4B0022AF
:105140009A630E4B1B6803F5805314331B6803F0FE
:105150008003002B0DD0094B1B6803F580531433DB
:1051600080221A60054B1B6803F580530833002228
:105170001A60FB6A18463037BD4680BD0CBA012064
:1051800080B584B000AF78607B68FB600F4B1B6814
:105190004FF0FF31184600F0C1F90346002BF5D15E
:1051A000F868FFF73BFFB860BB68002B0AD0FB68CC
:1051B0001B69F968B86898470346002B02D0B868A5
:1051C0000BF024FEBB68002BEAD1DFE74C07002080
:1051D00080B582B000AF78607B68002B06D10E4BA3
:1051E0004FF424720D490E4812F05CFD7B68732267
:1051F00083F838207B68742283F839207B68094A59
:105200005A617B68084A9A617868FFF78BFD002332
:1052100018460837BD4680BDF88C0108148D01087A
:10522000248D0108D9D90008E14E000880B500AFEF
:10523000FBF776FF0346184680BD80B485B000AF0B
:105240000346FB800023FB60B7F90630842B05D0B2
:10525000B7F90620FB6813440333FB60FB6818466C
:105260001437BD465DF8047B704780B483B000AF4F
:10527000EFF305837B607B68002B14BF01230023C1
:10528000DBB218460C37BD465DF8047B704780B52D
:1052900000AF02F089F90023184680BD80B500AF49
:1052A000FFF7E3FF0346002B03D002F09BFA03460F
:1052B00002E002F087FA0346184680BDF0B589B0D7
:1052C00004AF786039607B685B69002B20D07B6815
:1052D0009B69002B1CD07B685C687B681D687B68C1
:1052E0001E697B68B3F908301846FFF7A6FF014630
:1052F0007B685B697A6892690292019300913B68CE
:1053000032462946204601F08BFF0346FB601CE035
:105310007B685C687B681D687B681B699EB27B68E4
:10532000B3F908301846FFF788FF024607F10C036F
:10533000019300923B6832462946204601F0CAFF9D
:105340000346012B01D0002300E0FB681846143708
:10535000BD46F0BD80B584B000AF78607B68FB606F
:10536000FB68002B01D0FB6800E00123184602F027
:10537000E7F8002318461037BD4680BD80B582B0DF
:1053800000AF78607B685B68002B07D07B685B6848
:105390001946012001F0A3F8034603E0012001F0C3
:1053A00086F8034618460837BD4680BD80B584B0F0
:1053B00000AF786039600023BB607B68002B01D1AF
:1053C00080233AE00023FB603B68B3F1FF3F03D149
:1053D0004FF0FF33FB6009E03B68002B06D03B68D1
:1053E000FB60FB68002B01D10123FB60FFF73DFF51
:1053F0000346002B17D007F108031A4600217868EE
:1054000001F086FC0346012B01D0FF2315E0BB68A9
:10541000002B11D00B4B4FF080521A60BFF34F8F0F
:10542000BFF36F8F08E0F968786801F069FB034605
:10543000012B01D0FF2300E0002318461037BD46A2
:1054400080BD00BF04ED00E080B584B000AF78609F
:105450000023FB600023BB60FFF707FF0346002B20
:1054600016D007F108031946786801F0E4F90346FD
:10547000012B01D0FF2317E0BB68002B13D00C4B8E
:105480004FF080521A60BFF34F8FBFF36F8F0AE067
:10549000002300220021786801F03CF80346012B2C
:1054A00001D0FF23FB60FB6818461037BD4680BD66
:1054B00004ED00E080B586B002AF786039607B68AB
:1054C0005B68002B10D03B68012B0BD17B685A68BE
:1054D00003230093134600220021012000F002FF65
:1054E000034616E0002314E03B68012B10D1032291
:1054F0000021012000F069FFF860FB68002B05D057
:10550000002300220021F86801F004F8FB6800E0A5
:10551000002318461037BD4680BD000080B584B01A
:1055200000AF786039600023BB607B68002B01D13D
:1055300080233AE00023FB603B68B3F1FF3F03D1D7
:105540004FF0FF33FB6009E03B68002B06D03B685F
:10555000FB60FB68002B01D10123FB60FFF785FE98
:105560000346002B17D007F108031A46002178687C
:1055700001F0CEFB0346012B01D0FF2315E0BB68F1
:10558000002B11D00B4B4FF080521A60BFF34F8F9E
:10559000BFF36F8F08E0F968786801F0B1FA03464D
:1055A000012B01D0FF2300E0002318461037BD4631
:1055B00080BD00BF04ED00E080B584B000AF78602E
:1055C0000023FB600023BB60FFF74FFE0346002B68
:1055D00016D007F108031946786801F02CF9034644
:1055E000012B01D0FF2317E0BB68002B13D00C4B1D
:1055F0004FF080521A60BFF34F8FBFF36F8F0AE0F6
:10560000002300220021786800F084FF0346012B6C
:1056100001D0FF23FB60FB6818461037BD4680BDF4
:1056200004ED00E080B582B000AF7860FFF71DFEAA
:105630000346002B01D0822303E0786801F01FFCB1
:10564000002318460837BD4680BD90B585B002AF2F
:10565000786039607B689B68002B12D07B68DB68C0
:10566000002B0ED07B6818687B6859687B689A6845
:105670007B68DC6800230093234600F033FE03467A
:1056800008E07B6818687B685B680022194600F0B8
:105690009CFE034618460C37BD4690BD80B586B0CB
:1056A00000AFF860B9607A6000233B617B687B6182
:1056B0007B69002B01D101237B61FFF7D6FD0346F7
:1056C000002B18D007F1100207F108010023F86839
:1056D00001F01AF80346012B01D0FF2318E03B69C3
:1056E000002B14D00C4B4FF080521A60BFF34F8F39
:1056F000BFF36F8F0BE007F1080100237A69F868A8
:1057000000F008FF0346012B01D0FF2300E0002337
:1057100018461837BD4680BD04ED00E090B58BB04B
:1057200000AFF860B9607A60BB68FB610023BB61C1
:10573000BB68002B0AD180237B61FB681C4607F104
:10574000140393E8070084E8070054E000233B6259
:1057500000237B627B68B3F1FF3F03D14FF0FF333F
:105760007B6209E07B68002B06D07B687B627B6AEA
:10577000002B01D101237B62FFF777FD0346002B4D
:105780001CD007F1200207F1140304331946B8684E
:1057900001F0BEFA0346012B02D110237B6101E028
:1057A00000237B613B6A002B1DD0154B4FF08052CC
:1057B0001A60BFF34F8FBFF36F8F14E007F114032C
:1057C00004337A6A1946B86801F0BEF80346012B23
:1057D00002D110237B6106E07B6A002B01D10023FC
:1057E00000E040237B61FB681C4607F1140393E84B
:1057F000070084E80700F8682C37BD4690BD00BF5D
:1058000004ED00E080B582B000AF7860FFF72DFDB9
:105810000346002B04D0786801F014FB034603E034
:10582000786801F0F2FA034618460837BD4680BD95
:1058300080B582B000AF7860FFF717FD0346002BFC
:1058400001D0822303E0786801F019FB0023184699
:105850000837BD4680BD80B483B000AF78607B68F8
:1058600003F108027B685A607B684FF0FF329A6050
:105870007B6803F108027B68DA607B6803F1080249
:105880007B681A617B6800221A6000BF0C37BD4636
:105890005DF8047B704780B483B000AF78607B68AC
:1058A00000221A6100BF0C37BD465DF8047B7047CB
:1058B00080B485B000AF786039607B685B68FB605E
:1058C0003B68FA685A60FB689A683B689A60FB68B4
:1058D0009B683A685A60FB683A689A603B687A68E5
:1058E0001A617B681B685A1C7B681A6000BF1437FA
:1058F000BD465DF8047B704780B485B000AF78602A
:1059000039603B681B68BB60BB68B3F1FF3F03D1E4
:105910007B681B69FB600CE07B680833FB6002E07E
:10592000FB685B68FB60FB685B681A68BB689A424F
:10593000F6D9FB685A683B685A603B685B683A680E
:105940009A603B68FA689A60FB683A685A603B68FC
:105950007A681A617B681B685A1C7B681A6000BFF2
:105960001437BD465DF8047B704780B485B000AF46
:1059700078607B681B69FB607B685B687A6892680B
:105980009A607B689B687A6852685A60FB685A68BC
:105990007B689A4203D17B689A68FB685A607B688F
:1059A00000221A61FB681B685A1EFB681A60FB68BC
:1059B0001B6818461437BD465DF8047B704700002D
:1059C00080B485B000AFF860B9607A60FB68043BD2
:1059D000FB60FB684FF080721A60FB68043BFB6061
:1059E000BB6823F00102FB681A60FB68043BFB60A4
:1059F0000C4AFB681A60FB68143BFB607A68FB6822
:105A00001A60FB68043BFB60FB686FF002021A60DF
:105A1000FB68203BFB60FB6818461437BD465DF809
:105A2000047B7047295A000880B485B000AF00237A
:105A30007B60114B1B68B3F1FF3F09D04FF050035F
:105A400083F31188BFF36F8FBFF34F8FFB60FEE7C7
:105A50004FF0500383F31188BFF36F8FBFF34F8F65
:105A6000BB6000BF7B68002BFCD000BF1437BD4675
:105A70005DF8047B704700BF0C00002000000000B0
:105A8000074B19680868B0E8F04F80F30988BFF346
:105A90006F8F4FF0000080F311887047AFF30080E4
:105AA0007897012000BF00BF08480068006880F3B5
:105AB00008884FF0000080F3148862B661B6BFF327
:105AC0004F8FBFF36F8F00DF00BF00BF08ED00E016
:105AD00080B586B000AF444B1B68444A934209D15D
